:100000000C9434000C9451000C9451000C94510049
:100010000C9451000C9451000C9451000C9451001C
:100020000C9451000C9451000C9451000C9451000C
:100030000C9451000C9451000C9451000C945100FC
:100040000C9451000C9451000C9451000C945100EC
:100050000C9451000C9451000C9451000C945100DC
:100060000C9451000C94510011241FBECFEFD8E026
:10007000DEBFCDBF11E0A0E0B1E0ECEAF8E002C0E5
:1000800005900D92A63EB107D9F721E0A6EEB1E0AA
:1000900001C01D92AC3EB207E1F70E94B2000C9481
:1000A00054040C9400009091C00095FFFCCF809305
:1000B000C60008958091C00085FFFCCF8091C600E6
:1000C00008952FEF83ED90E3215080409040E1F7B9
:1000D00000C0000089B18470811549F08CE191E085
:1000E0009F938F930E945C010F900F9081E0089581
:1000F000CF930E940B01C82F1F928F9382E491E04F
:100100009F938F930E945C010F900F900F900F9020
:1001100083E0C13309F482E0CF91089586E491E051
:100120000E9472010E940B0121E030E0813411F441
:1001300020E030E0C901880F991F0895C2E085B121
:100140008C2785B92FEF89E698E1215080409040B7
:10015000E1F700C000006EE071E081E691E00E94EE
:100160003201EDCF1092C50080E18093C4008091F0
:10017000C10088618093C1008091C2008E6080932D
:10018000C2008EE091E09093E9018093E80180E065
:1001900091E09093E7018093E6010E94E400529879
:1001A00080E0823071F0833028F4811107C00E9412
:1001B0006100F7CF8330B9F70E949E000E9478005B
:1001C000F0CF0E948E00EDCF80EF8AB908959FE0B6
:1001D0009BB989B18F708F30D9F7EFECF7E0319789
:1001E000F1F700C000008BB989B18F708F3081F7B3
:1001F00008959FE09BB989B18F708F30D9F3EFECF0
:10020000F7E03197F1F700C000009BB989B18F701A
:100210008F3081F308950E94E7008FEC97E00197FB
:10022000F1F700C000000E94F90094E0EFEEEBB996
:10023000AFECB7E01197F1F700C0000089B18F7003
:100240008F3021F4EE0FEF5F9A9589F7E07F8757A3
:10025000E80FE83728F4F0E0E259FE4F8081089576
:100260008AE70895EF92FF920F931F93CF93DF9346
:100270008B01DB0113962C91E12CF12C21FD12C096
:10028000EE24EA94FF24FA9411C0D8011896ED9157
:10029000FC91B8010995892B21F0EE24EA94FF2402
:1002A000FA94CE01EC0189918111EFCFC701CDB74E
:1002B000DEB7E6E00C944504A0E0B0E0E2E6F1E051
:1002C0000C942D04AE014B5F5F4FFA016191719167
:1002D000AF018091E8019091E9010E949E01E2E066
:1002E0000C9449040F931F93CF93DF93E091E8019F
:1002F000F091E901238100E010E021FD0EC00FEF35
:100300001FEFC801DF91CF911F910F9108950995BB
:10031000892B11F00FEF1FEFCE01EC018991609155
:10032000E8017091E901DB011896ED91FC918111D2
:10033000EECF8AE00995892B21F3E1CFABE0B0E065
:10034000E4EAF1E00C9420046C017B018A01FC01D9
:1003500017821682838181FFC9C19AE0592EF60166
:100360002381F70123FD859123FF81917F01811571
:1003700009F459C1853239F423FD959123FF9191F8
:100380007F01953229F4B60190E00E948F03E7CFF8
:10039000912C612C712CF0E27F1640F59B32D9F044
:1003A00058F49032D1F09332F1F09E3299F576FC08
:1003B0003AC1689476F806C09D3291F09033C1F44A
:1003C000689470F8F70123FD959123FF91917F01C7
:1003D0009111E1CF26C0689471F8689472F8F2CF59
:1003E000689473F8EFCF689474F8ECCF77FC19C079
:1003F00080ED890F8A30C8F676FE05C0959C800D89
:100400001124982EDFCF659C800D1124682E6894EE
:1004100075F8D8CF9C3619F4689477F8D3CF98360E
:1004200089F2892F8F7D8554833008F488C09336F4
:1004300009F4A4C0933709F4A7C0933509F4B3C0F5
:10044000943619F0993609F0DDC0F80177FED3C073
:1004500061917191819191918F01272D2F76822E3B
:1004600097FF09C090958095709561957F4F8F4F4C
:100470009F4F689487F82AE030E0AE014F5F5F4FEE
:100480005A010E94BF038A19A82EBA2C782C86FE26
:100490000CC0E89470F8A91440F484FE05C082FCF6
:1004A00003C0F82DFE7E7F2EB92C74FEF8C0FE012D
:1004B000EA0DF11D8081803309F0EAC0272D297EE5
:1004C000722E73FC0EC070FEF9C09A2CB61418F48C
:1004D000960C9B18B62C862D8B196B1408F480E0B3
:1004E000B80EB61408F0ECC06B1874FEEBC0B60181
:1004F00080E390E00E948F0372FE09C088E590E0DF
:1005000071FC02C088E790E0B6010E948F03A91435
:1005100008F4E5C0AA94B12C4FEFA41AB40ACE0196
:1005200001964C01A80EB91EF50182915F01B6013A
:1005300090E00E948F038A149B04B1F715C00C5FF2
:100540001F4F8FE3898388248394912CAE014F5FE2
:100550005F4F5A01E89477F873FC03C08614910446
:1005600098F181149104B9F5611409F4F8CEB6013B
:1005700080E290E00E948F036A94F6CFF8018081B8
:1005800089830E5F1F4FDFCFF801A190B1908F01DB
:10059000692D70E076FC02C06FEF7FEFC5010E940D
:1005A00084034C01D7CFF801A190B1908F01692D40
:1005B00070E076FC02C06FEF7FEFC5010E94790307
:1005C0004C01689477F8C8CFB60180E290E00E94B1
:1005D0008F036A94C3CFF50177FC859177FE8191F3
:1005E0005F01B60190E00E948F0361106A94F1E010
:1005F0008F1A9108B6CF61917191072E000C880B6C
:10060000990B2ACF872CE89484F82AE030E09537BC
:1006100039F1572D597F852E9037A9F058F4983528
:10062000A9F09F36D9F0F601868197812B96EFE0ED
:100630000C943C049837B9F784FE02C0689482F8A1
:1006400020E130E00DC0689484F8F6CF74FE03C05A
:10065000852F8660882E20E132E002C028E030E05D
:10066000F80187FE10C061917191819191918F0184
:10067000FE0131965F01AF010E94BF038A19A82EC7
:10068000E89487F802CF6191719180E090E0EFCF1C
:1006900072FC02C0B39415CFB394B39412CF872DDC
:1006A0008678811509F40DCFF5CFB60180E290E090
:1006B0000E948F0383948614C0F30DCF8B2CFBCF45
:1006C000612C13CF872D8678811509F420CF80E225
:1006D00071FC8BE277FC8DE2B60190E016CFB6019B
:1006E00080E390E00E948F039A9411CF8FEF9FEFE9
:1006F0009DCFFC010590615070400110D8F78095A6
:1007000090958E0F9F1F0895FC01615070400190DD
:100710000110D8F7809590958E0F9F1F08950F9325
:100720001F93CF93DF93182F092FEB018B8181FD4E
:1007300009C01FEF0FEF812F902FDF91CF911F91F5
:100740000F91089582FF14C02E813F818C819D817D
:10075000281739073CF4E881F981CF010196998384
:10076000888310838E819F8101969F838E83E3CF40
:10077000E885F985812F0995892BA1F3DACFFA0154
:10078000AA27283051F1203181F1E8946F936E7FD0
:100790006E5F7F4F8F4F9F4FAF4FB1E03ED0B4E0C1
:1007A0003CD0670F781F891F9A1FA11D680F791F02
:1007B0008A1F911DA11D6A0F711D811D911DA11D13
:1007C00020D009F468943F912AE0269F1124301923
:1007D000305D3193DEF6CF010895462F4770405DBE
:1007E0004193B3E00FD0C9F7F6CF462F4F70405D6D
:1007F0004A3318F0495D31FD4052419302D0A9F7C8
:10080000EACFB4E0A6959795879577956795BA95C1
:10081000C9F700976105710508959B01AC010A2E87
:1008200006945795479537952795BA95C9F7620F5E
:10083000731F841F951FA01D08952F923F924F9202
:100840005F926F927F928F929F92AF92BF92CF9260
:10085000DF92EF92FF920F931F93CF93DF93CDB769
:10086000DEB7CA1BDB0B0FB6F894DEBF0FBECDBFE1
:1008700009942A88398848885F846E847D848C84B2
:100880009B84AA84B984C884DF80EE80FD800C81BB
:100890001B81AA81B981CE0FD11D0FB6F894DEBF9E
:0C08A0000FBECDBFED010895F894FFCF0E
:1008AC00000000010000000000005A0000000000E1
:1008BC000002000000005300000000004D6F766540
:1008CC006D656E742064657465637465642C207347
:1008DC007769746368696E6720746F2074696D65DD
:1008EC00720025730A00556E6C6F636B6564212072
:1008FC0050726573732027412720746F2061726DCD
:10090C000048656C6C6F20776F726C640A00447AD7
:10091C007A7A437A42417A7A7A7A7A7A7A7A7A7AD3
:10092C007A7A7A7A7A7A7A7A7A7A7A7A7A7A7A7A1B
:10093C007A7A7A7A7A7A7A7A7A7A7A7A7A7A7A7A0B
:10094C007A7A7A7A7A7A7A7A7A7A7A7A7A7A237A52
:10095C007A7A397A36337A7A7A7A7A7A7A7A7A7AB7
:10096C007A7A7A7A7A7A7A7A7A7A7A7A7A7A307A25
:10097C007A7A387A35327A7A7A7A7A7A7A7A2A7AEA
:06098C007A7A377A34315B
:00000001FF
