:100000000C9476000C9497000C9497000C94970035
:100010000C9497000C9497000C9497000C94970004
:100020000C9497000C9497000C9497000C949700F4
:100030000C9497000C9497000C9497000C949700E4
:100040000C9497000C9497000C9497000C949700D4
:100050000C9497000C9497000C9497000C949700C4
:100060000C9497000C9497000C9497000C949700B4
:100070000C9497000C9497000C9497000C949700A4
:100080000C94A0010C9497000C9497000C9497008A
:100090000C9497000C9497000C9497000C94970084
:1000A0000C9497000C9497000C9497000C94970074
:1000B0000C9497000C9497000C9497000C94970064
:1000C0000C9497000C9497000C9497000C94970054
:1000D0000C9497000C9497000C9497000C94970044
:1000E0000C9497000C9499000C94A00011241FBE4E
:1000F000CFEFD1E2DEBFCDBF00E00CBF13E0A0E048
:10010000B2E0E4E2FBE000E00BBF02C007900D921A
:10011000AA32B107D9F723E0AAE2B3E001C01D92E9
:10012000A833B207E1F70E94E9010C9490050C9402
:1001300000009091C00095FFFCCF8093C600089509
:100140008091C00085FFFCCF8091C60008950F9379
:100150001F93CF93DF93C0E2D2E002E212E028982F
:10016000CEBD0DB407FEFDCFDEB51F92DF931F930A
:100170000F930E94AF02289A0F900F900F900F904C
:10018000D43051F02FEF83ED90E321508040904028
:10019000E1F700C00000E3CF6B9A789410929000D2
:1001A00010929100109295001092940088E09DE3C7
:1001B000909399008093980080919100856080933E
:1001C00091008091710082608093710080910201A2
:1001D00080628093020186E292E09F938F930E9457
:1001E000AF020F900F9081E0DF91CF911F910F919F
:1001F0000895CF930E948602C82F8115C1F1809186
:1002000002018064809302018FE19EE40197F1F77F
:1002100000C00000809102018F7B809302011F9239
:10022000CF9384E392E09F938F930E94AF020F904D
:100230000F900F900F902091300330913103CA320C
:10024000C9F4121613060CF053C021503109309333
:100250003103209330033F932F9381E492E09F93E7
:100260008F930E94AF020F900F900F900F9081E03C
:10027000CF910895C332E1F523303105ACF43F93BB
:100280002F9385E592E09F938F930E94AF022C9A63
:100290008FE39CE90197F1F700C000002C981092C1
:1002A000310310923003DFCF85E792E00E94C30252
:1002B000E2E3F3E0ACE1B2E081E021919D9129130A
:1002C00080E093E0E633F907C1F7811134C084E898
:1002D00092E00E94C30210923103109230032C9AD4
:1002E0008FE39CE90197F1F700C000002C98BFCF85
:1002F000243031058CF083E992E00E94C3022C9AED
:100300008FE39CE90197F1F700C000002C98109250
:10031000310310923003ABCFF901EE5CFC4FC08388
:100320002F5F3F4F30933103209330033F932F9340
:1003300082E592E094CF82E09BCF2C9A81E00895F1
:100340001F920F920FB60F9211240BB60F922F939C
:100350003F934F935F936F937F938F939F93AF934D
:10036000BF93EF93FF938091020190E289278093DE
:1003700002011092950010929400809136039091A2
:100380003703019690933703809336030A9774F0EE
:100390008BEA92E09F938F930E94AF020E949D018F
:1003A00080919100109291000F900F90FF91EF912A
:1003B000BF91AF919F918F917F916F915F914F917D
:1003C0003F912F910F900BBE0F900FBE0F901F907B
:1003D00018951092C50080E18093C4008091C100FF
:1003E00088618093C1008091C2008E608093C200BA
:1003F0008EE092E090932D0380932C0380E092E0B6
:1004000090932B0380932A030E945602249A809192
:1004100001018064809301018091010180628093D9
:1004200001010A9A84B1876084B98CB580658CBD5E
:100430008CB581608CBD80E0C2E3D3E014E08230F3
:1004400079F0833028F4811108C00E94A700F7CF0B
:100450008330B9F70E949D01F2CF0E94F900EFCFDF
:100460008091910010929100FE01812F11928A9546
:10047000E9F71092310310923003809102018064F9
:1004800080930201809102018F7D809302012C985C
:100490000E9486028134E1F7809102018F7B809374
:1004A00002011092370310923603CFCF80EF809372
:1004B000070108959FE090930801809106018F70D5
:1004C0008F30C9F7EFECF7E03197F1F700C000008B
:1004D00080930801809106018F708F3061F7089535
:1004E0009FE090930801809106018F708F30C9F3CF
:1004F000EFECF7E03197F1F700C0000090930801AE
:10050000809106018F708F3061F308950E945A0226
:100510008FEC97E00197F1F700C000000E94700295
:1005200094E0EFEEE0930801AFECB7E01197F1F73C
:1005300000C00000809106018F708F3021F4EE0F13
:10054000EF5F9A9579F7E07F8757E80FE83728F44F
:10055000F0E0EF54FD4F808108958AE70895CF932E
:10056000DF93CDB7DEB7AE014A5F5F4FFA0161910D
:100570007191AF0180912C0390912D030E94EF02A5
:10058000DF91CF9108950F931F93CF93DF93E09165
:100590002C03F0912D03238100E010E021FD0EC01B
:1005A0000FEF1FEFC801DF91CF911F910F910895B9
:1005B0001995892B11F00FEF1FEFCE01EC018991F6
:1005C00060912C0370912D03DB011896ED91FC9145
:1005D0008111EECF8AE01995892B21F3E1CF5F924B
:1005E0006F927F928F929F92AF92BF92CF92DF9243
:1005F000EF92FF920F931F93CF93DF9300D000D021
:1006000000D00F920F92CDB7DEB76C017B018A014B
:10061000FC0117821682838181FFDBC19AE0592E8B
:10062000F6012381F70123FD859123FF81917F014D
:10063000811509F459C1853239F423FD959123FFC1
:1006400091917F01953229F4B60190E00E94020554
:10065000E7CF912C612C712CF0E27F1640F59B3294
:10066000D9F058F49032D1F09332F1F09E3299F5EE
:1006700076FC3AC1689476F806C09D3291F09033CA
:10068000C1F4689470F8F70123FD959123FF9191CF
:100690007F019111E1CF26C0689471F8689472F8D7
:1006A000F2CF689473F8EFCF689474F8ECCF77FCCE
:1006B00019C080ED890F8A30C8F676FE05C0959C7A
:1006C000800D1124982EDFCF659C800D1124682E9B
:1006D000689475F8D8CF9C3619F4689477F8D3CF1E
:1006E000983689F2892F8F7D8554833008F488C02D
:1006F000933609F4A4C0933709F4A7C0933509F4DD
:10070000B3C0943619F0993609F0DDC0F80177FED0
:10071000D3C061917191819191918F01272D2F7695
:10072000822E97FF09C090958095709561957F4FB7
:100730008F4F9F4F689487F82AE030E0AE014F5FFB
:100740005F4F5A010E9432058A19A82EBA2C782CC4
:1007500086FE0CC0E89470F8A91440F484FE05C02D
:1007600082FC03C0F82DFE7E7F2EB92C74FE0AC1D8
:10077000FE01EA0DF11D8081803309F0FCC0272DB8
:10078000297E722E73FC0EC070FE0BC19A2CB6141B
:1007900018F4960C9B18B62C862D8B196B1408F444
:1007A00080E0B80EB61408F0FEC06B1874FEFDC0F1
:1007B000B60180E390E00E94020572FE09C088E560
:1007C00090E071FC02C088E790E0B6010E9402054B
:1007D000A91408F4F7C0AA94B12C4FEFA41AB40AD4
:1007E000CE0101964C01A80EB91EF50182915F0160
:1007F000B60190E00E9402058A149B04B1F715C06F
:100800000C5F1F4F8FE3898388248394912CAE0162
:100810004F5F5F4F5A01E89477F873FC03C086146A
:10082000910498F181149104B9F5611409F4F8CE9A
:10083000B60180E290E00E9402056A94F6CFF801CA
:10084000808189830E5F1F4FDFCFF801A190B190A7
:100850008F01692D70E076FC02C06FEF7FEFC5015C
:100860000E94F7044C01D7CFF801A190B1908F01FD
:10087000692D70E076FC02C06FEF7FEFC5010E942A
:10088000EC044C01689477F8C8CFB60180E290E0A0
:100890000E9402056A94C3CFF50177FC859177FE2B
:1008A00081915F01B60190E00E94020561106A9497
:1008B000F1E08F1A9108B6CF61917191072E000C6B
:1008C000880B990B2ACF872CE89484F82AE030E033
:1008D0009537C9F1572D597F852E903739F1E8F4B6
:1008E000983539F19F3669F1F601868197812B960B
:1008F0000FB6F894DEBF0FBECDBFDF91CF911F9131
:100900000F91FF90EF90DF90CF90BF90AF909F90AE
:100910008F907F906F905F900895983729F784FEAD
:1009200002C0689482F820E130E00DC0689484F839
:10093000F6CF74FE03C0852F8660882E20E132E05A
:1009400002C028E030E0F80187FE10C0619171918B
:10095000819191918F01FE0131965F01AF010E945B
:1009600032058A19A82EE89487F8F0CE619171912A
:1009700080E090E0EFCF72FC02C0B39403CFB39459
:10098000B39400CF872D8678811509F4FBCEF5CF7F
:10099000B60180E290E00E94020583948614C0F3C1
:1009A000FBCE8B2CFBCF612C01CF872D8678811558
:1009B00009F40ECF80E271FC8BE277FC8DE2B60188
:1009C00090E004CFB60180E390E00E9402059A9483
:1009D000FFCE8FEF9FEF8BCFFC01059061507040F1
:1009E0000110D8F7809590958E0F9F1F0895FC01F8
:1009F0006150704001900110D8F7809590958E0F4E
:100A00009F1F08950F931F93CF93DF93182F092FE4
:100A1000EB018B8181FD09C01FEF0FEF812F902F1C
:100A2000DF91CF911F910F91089582FF14C02E8105
:100A30003F818C819D81281739073CF4E881F98139
:100A4000CF0101969983888310838E819F810196BF
:100A50009F838E83E3CFE885F985812F1995892BB4
:100A6000A1F3DACFFA01AA27283051F1203181F120
:100A7000E8946F936E7F6E5F7F4F8F4F9F4FAF4FA6
:100A8000B1E03ED0B4E03CD0670F781F891F9A1FB9
:100A9000A11D680F791F8A1F911DA11D6A0F711D6D
:100AA000811D911DA11D20D009F468943F912AE079
:100AB000269F11243019305D3193DEF6CF01089561
:100AC000462F4770405D4193B3E00FD0C9F7F6CF92
:100AD000462F4F70405D4A3318F0495D31FD40525A
:100AE000419302D0A9F7EACFB4E0A69597958795F0
:100AF00077956795BA95C9F70097610571050895CF
:100B00009B01AC010A2E069457954795379527957A
:100B1000BA95C9F7620F731F841F951FA01D089512
:040B2000F894FFCF77
:100B240000000001000000000000A0000000000020
:100B3400000200000000990000000000313233344C
:100B4400300025750A0054696D65722073746172F2
:100B540074656400707265737365643A2025630A72
:100B6400006261636B73706163652C20696E6465F8
:100B7400783A256400496E707574696E64657820EE
:100B8400746F6F206C6F772120282564292072658B
:100B94007365740A00636865636B696E6720696EC8
:100BA4007075740057524F4E472050415353574F5E
:100BB4005244004D617820696E70757420696E64CA
:100BC40065782C2072657365742E00414C41524D3A
:100BD40000447A7A7A437A42417A7A7A7A7A7A7AC9
:100BE4007A7A7A7A7A7A7A7A7A7A7A7A7A7A7A7A61
:100BF4007A7A7A7A7A7A7A7A7A7A7A7A7A7A7A7A51
:100C04007A7A7A7A7A7A7A7A7A7A7A7A7A7A7A7A40
:100C14007A237A7A7A397A36337A7A7A7A7A7A7A53
:100C24007A7A7A7A7A7A7A7A7A7A7A7A7A7A7A7A20
:100C34007A307A7A7A387A35327A7A7A7A7A7A7A29
:0A0C44007A2A7A7A7A377A3431007E
:00000001FF
