:100000000C9476000C9497000C9497000C94970035
:100010000C9497000C9497000C9497000C94970004
:100020000C9497000C9497000C9497000C949700F4
:100030000C9497000C9497000C9497000C949700E4
:100040000C9497000C9497000C9497000C949700D4
:100050000C9497000C9497000C9497000C949700C4
:100060000C9497000C9497000C9497000C949700B4
:100070000C9497000C9497000C9497000C949700A4
:100080000C9497000C9497000C9497000C94970094
:100090000C9497000C9497000C9497000C94970084
:1000A0000C9497000C9497000C9497000C94970074
:1000B0000C9497000C9497000C9497000C94970064
:1000C0000C9497000C9497000C9497000C94970054
:1000D0000C9497000C9497000C9497000C94970044
:1000E0000C9497000C9499000C94A00011241FBE4E
:1000F000CFEFD1E2DEBFCDBF00E00CBF12E0A0E049
:10010000B2E0E2E4F9E000E00BBF02C007900D921C
:10011000A83BB107D9F722E0A8EBB2E001C01D92DD
:10012000A43CB207E1F70E9429010C949F040C94AF
:1001300000009091C00095FFFCCF8093C600089509
:100140008091C00085FFFCCF8091C60008950F9379
:100150001F93CF93DF93C0E2D2E002E212E028982F
:10016000CEBD0DB407FEFDCFDEB51F92DF931F930A
:100170000F930E94EA01289A0F900F900F900F9012
:10018000D43051F02FEF83ED90E321508040904028
:10019000E1F700C00000E3CF86E292E09F938F93E7
:1001A0000E94EA010F900F9081E0DF91CF911F91A3
:1001B0000F9108950E94C101811102C081E008954C
:1001C0002091BE023091BF02F901E054FD4F8083BF
:1001D0002F5F3F4F3093BF022093BE0290910201E8
:1001E0009064909302012FEF31EE94E02150304063
:1001F0009040E1F700C00000909102019F7B909336
:1002000002011F928F9384E392E09F938F930E9449
:10021000EA010F900F900F900F908091BE02909185
:10022000BF02049759F6E0ECF2E0ACE1B2E091E0F5
:1002300021918D91281390E022E0E43CF207C1F770
:1002400083E0891B089585B190E1892785B983E012
:1002500008951092C50080E18093C4008091C10090
:1002600088618093C1008091C2008E608093C2003B
:100270008EE092E09093BB028093BA0280E092E01D
:100280009093B9028093B8020E949101249A8091C0
:10029000010180648093010184B1876084B98CB5C9
:1002A00080658CBD8CB581608CBDC0E00DE312E033
:1002B00080ECE82E82E0F82ED4E01F92CF931F93BB
:1002C0000F930E94EA010F900F900F900F90C23091
:1002D00079F030F4C11109C00E94A700C82FEDCFFA
:1002E000C33059F70E942301F9CF0E94DA00F6CFFC
:1002F000F7018D2F11928A95E9F71092BF021092A3
:10030000BE02809102018064809302010E94C101BB
:100310008134E1F7809102018F7B80930201C0E07C
:10032000CCCF80EF8093070108959FE09093080160
:10033000809106018F708F30C9F7EFECF7E03197AD
:10034000F1F700C0000080930801809106018F70D2
:100350008F3061F708959FE0909308018091060126
:100360008F708F30C9F3EFECF7E03197F1F700C0F1
:10037000000090930801809106018F708F3061F327
:1003800008950E9495018FEC97E00197F1F700C066
:1003900000000E94AB0194E0EFEEE0930801AFECA7
:1003A000B7E01197F1F700C00000809106018F704F
:1003B0008F3021F4EE0FEF5F9A9579F7E07F875742
:1003C000E80FE83728F4F0E0E05CFD4F8081089505
:1003D0008AE70895CF93DF93CDB7DEB7AE014A5FCA
:1003E0005F4FFA0161917191AF018091BA029091D2
:1003F000BB020E94FE01DF91CF9108955F926F9240
:100400007F928F929F92AF92BF92CF92DF92EF92A4
:10041000FF920F931F93CF93DF9300D000D000D0B3
:100420000F920F92CDB7DEB76C017B018A01FC0100
:1004300017821682838181FFDBC19AE0592EF60173
:100440002381F70123FD859123FF81917F01811590
:1004500009F459C1853239F423FD959123FF919117
:100460007F01953229F4B60190E00E941104E7CF94
:10047000912C612C712CF0E27F1640F59B32D9F063
:1004800058F49032D1F09332F1F09E3299F576FC27
:100490003AC1689476F806C09D3291F09033C1F469
:1004A000689470F8F70123FD959123FF91917F01E6
:1004B0009111E1CF26C0689471F8689472F8F2CF78
:1004C000689473F8EFCF689474F8ECCF77FC19C098
:1004D00080ED890F8A30C8F676FE05C0959C800DA8
:1004E0001124982EDFCF659C800D1124682E68940E
:1004F00075F8D8CF9C3619F4689477F8D3CF98362E
:1005000089F2892F8F7D8554833008F488C0933613
:1005100009F4A4C0933709F4A7C0933509F4B3C014
:10052000943619F0993609F0DDC0F80177FED3C092
:1005300061917191819191918F01272D2F76822E5A
:1005400097FF09C090958095709561957F4F8F4F6B
:100550009F4F689487F82AE030E0AE014F5F5F4F0D
:100560005A010E9441048A19A82EBA2C782C86FEC2
:100570000CC0E89470F8A91440F484FE05C082FC15
:1005800003C0F82DFE7E7F2EB92C74FE0AC1FE0139
:10059000EA0DF11D8081803309F0FCC0272D297EF2
:1005A000722E73FC0EC070FE0BC19A2CB61418F498
:1005B000960C9B18B62C862D8B196B1408F480E0D2
:1005C000B80EB61408F0FEC06B1874FEFDC0B6017C
:1005D00080E390E00E94110472FE09C088E590E07B
:1005E00071FC02C088E790E0B6010E941104A914D2
:1005F00008F4F7C0AA94B12C4FEFA41AB40ACE01A4
:1006000001964C01A80EB91EF50182915F01B60159
:1006100090E00E9411048A149B04B1F715C00C5F8E
:100620001F4F8FE3898388248394912CAE014F5F01
:100630005F4F5A01E89477F873FC03C08614910465
:1006400098F181149104B9F5611409F4F8CEB6015A
:1006500080E290E00E9411046A94F6CFF801808154
:1006600089830E5F1F4FDFCFF801A190B1908F01FA
:10067000692D70E076FC02C06FEF7FEFC5010E942C
:1006800006044C01D7CFF801A190B1908F01692DDC
:1006900070E076FC02C06FEF7FEFC5010E94FB03A4
:1006A0004C01689477F8C8CFB60180E290E00E94D0
:1006B00011046A94C3CFF50177FC859177FE81918F
:1006C0005F01B60190E00E94110461106A94F1E0AC
:1006D0008F1A9108B6CF61917191072E000C880B8B
:1006E000990B2ACF872CE89484F82AE030E09537DC
:1006F000C9F1572D597F852E903739F1E8F4983597
:1007000039F19F3669F1F601868197812B960FB6F4
:10071000F894DEBF0FBECDBFDF91CF911F910F9137
:10072000FF90EF90DF90CF90BF90AF909F908F9011
:100730007F906F905F900895983729F784FE02C0EC
:10074000689482F820E130E00DC0689484F8F6CF18
:1007500074FE03C0852F8660882E20E132E002C03F
:1007600028E030E0F80187FE10C06191719181911D
:1007700091918F01FE0131965F01AF010E9441040A
:100780008A19A82EE89487F8F0CE6191719180E0E3
:1007900090E0EFCF72FC02C0B39403CFB394B39454
:1007A00000CF872D8678811509F4FBCEF5CFB601F1
:1007B00080E290E00E94110483948614C0F3FBCE83
:1007C0008B2CFBCF612C01CF872D8678811509F406
:1007D0000ECF80E271FC8BE277FC8DE2B60190E0F7
:1007E00004CFB60180E390E00E9411049A94FFCEFA
:1007F0008FEF9FEF8BCFFC0105906150704001108F
:10080000D8F7809590958E0F9F1F0895FC01615039
:10081000704001900110D8F7809590958E0F9F1F22
:1008200008950F931F93CF93DF93182F092FEB0198
:100830008B8181FD09C01FEF0FEF812F902FDF917A
:10084000CF911F910F91089582FF14C02E813F8197
:100850008C819D81281739073CF4E881F981CF010B
:1008600001969983888310838E819F8101969F834F
:100870008E83E3CFE885F985812F1995892BA1F324
:10088000DACFFA01AA27283051F1203181F1E8941A
:100890006F936E7F6E5F7F4F8F4F9F4FAF4FB1E073
:1008A0003ED0B4E03CD0670F781F891F9A1FA11D6E
:1008B000680F791F8A1F911DA11D6A0F711D811D6F
:1008C000911DA11D20D009F468943F912AE0269F34
:1008D00011243019305D3193DEF6CF010895462F93
:1008E0004770405D4193B3E00FD0C9F7F6CF462F74
:1008F0004F70405D4A3318F0495D31FD40524193DD
:1009000002D0A9F7EACFB4E0A69597958795779599
:100910006795BA95C9F700976105710508959B0120
:10092000AC010A2E06945795479537952795BA95A9
:10093000C9F7620F731F841F951FA01D0895F894B7
:02094000FFCFE7
:1009420000000001000000000000A0000000000004
:100952000002000000009900000000003132333430
:10096200300025750A0054696D65722073746172D6
:10097200746564004B65793A2025630A002564009A
:10098200447A7A7A437A42417A7A7A7A7A7A7A7AA3
:100992007A7A7A7A7A7A7A7A7A7A7A7A7A7A7A7AB5
:1009A2007A7A7A7A7A7A7A7A7A7A7A7A7A7A7A7AA5
:1009B2007A7A7A7A7A7A7A7A7A7A7A7A7A7A7A7A95
:1009C200237A7A7A397A36337A7A7A7A7A7A7A7AA8
:1009D2007A7A7A7A7A7A7A7A7A7A7A7A7A7A7A7A75
:1009E200307A7A7A387A35327A7A7A7A7A7A7A7A7E
:0809F2002A7A7A7A377A34314F
:00000001FF
