:100000000C9476000C9497000C9497000C94970035
:100010000C9497000C9497000C9497000C94970004
:100020000C9497000C9497000C9497000C949700F4
:100030000C9497000C9497000C9497000C949700E4
:100040000C9497000C9497000C9497000C949700D4
:100050000C9497000C9497000C9497000C949700C4
:100060000C9497000C9497000C9497000C949700B4
:100070000C9497000C9497000C9497000C949700A4
:100080000C945E010C9497000C9497000C949700CC
:100090000C9497000C9497000C9497000C94970084
:1000A0000C9497000C9497000C9497000C94970074
:1000B0000C9497000C9497000C9497000C94970064
:1000C0000C9497000C9497000C9497000C94970054
:1000D0000C9497000C9497000C9497000C94970044
:1000E0000C9497000C9499000C94A00011241FBE4E
:1000F000CFEFD1E2DEBFCDBF00E00CBF12E0A0E049
:10010000B2E0E0E8FAE000E00BBF02C007900D9219
:10011000A43CB107D9F722E0A4ECB2E001C01D92E3
:10012000A23DB207E1F70E94B4010C943E050C9485
:1001300000009091C00095FFFCCF8093C600089509
:100140008091C00085FFFCCF8091C60008950F9379
:100150001F93CF93DF93C0E2D2E002E212E028982F
:10016000CEBD0DB407FEFDCFDEB51F92DF931F930A
:100170000F930E948902289A0F900F900F900F9072
:10018000D43051F02FEF83ED90E321508040904028
:10019000E1F700C00000E3CF6B9A789410929000D2
:1001A00010929100109295001092940088E09DE3C7
:1001B000909399008093980080919100856080933E
:1001C00091008091710082608093710080910201A2
:1001D00080628093020186E292E09F938F930E9457
:1001E00089020F900F9081E0DF91CF911F910F91C5
:1001F00008950E9460028115F9F0909102019064C7
:1002000090930201EFE1FEE43197F1F700C00000A6
:10021000909102019F7B909302012091CA0230913C
:10022000CB028A3259F41216130644F421503109D4
:100230003093CB022093CA0281E00895482F50E00A
:1002400024303105F9F444535240E1F4ECECF2E08F
:10025000ACE1B2E081E021919D91291380E092E030
:10026000E03DF907C1F7811124C01092CB02109232
:10027000CA022C9AEFE1FEE43197F1F700C00000CA
:100280002C98DACFF901E453FD4F80832F5F3F4F65
:100290003093CB022093CA021F928F9386E392E0A1
:1002A0009F938F930E9489020F900F900F900F9051
:1002B000C3CF82E008952C9A81E008951F920F9297
:1002C0000FB60F9211240BB60F922F933F934F93BB
:1002D0005F936F937F938F939F93AF93BF93EF93AE
:1002E000FF938091020190E289278093020110928E
:1002F0009500109294008091D0029091D1020196C5
:100300009093D1028093D0029F938F938FE392E0DA
:100310009F938F930E9489020F900F900F900F90E0
:100320008091D0029091D1020A975CF083E492E030
:100330009F938F930E9489020F900F900E945B0100
:10034000FDCFFF91EF91BF91AF919F918F917F91E1
:100350006F915F914F913F912F910F900BBE0F9036
:100360000FBE0F901F9018951092C50080E18093EA
:10037000C4008091C10088618093C1008091C20057
:100380008E608093C2008EE092E09093C7028093CB
:10039000C60280E092E09093C5028093C4020E945E
:1003A0003002249A80910101806480930101809140
:1003B00001018062809301010A9A84B1876084B947
:1003C0008CB580658CBD8CB581608CBDC0E009E4C6
:1003D00012E08CECE82E82E0F82ED4E01F92CF934E
:1003E0001F930F930E9489020F900F900F900F9010
:1003F000C23079F030F4C11109C00E94A700C82FA3
:10040000EDCFC33059F70E945B01F9CF0E94F9008C
:10041000F6CF8091910010929100F7018D2F1192EB
:100420008A95E9F71092CB021092CA0280910201DC
:10043000806480930201809102018F7D809302018C
:100440002C980E9460028134E1F7809102018F7B39
:10045000809302011092D1021092D002C0E0BECF70
:1004600080EF8093070108959FE0909308018091A9
:1004700006018F708F30C9F7EFECF7E03197F1F795
:1004800000C0000080930801809106018F708F30BA
:1004900061F708959FE090930801809106018F70A5
:1004A0008F30C9F3EFECF7E03197F1F700C00000AF
:1004B00090930801809106018F708F3061F3089549
:1004C0000E9434028FEC97E00197F1F700C0000022
:1004D0000E944A0294E0EFEEE0930801AFECB7E02F
:1004E0001197F1F700C00000809106018F708F30E6
:1004F00021F4EE0FEF5F9A9579F7E07F8757E80FC9
:10050000E83728F4F0E0E45BFD4F808108958AE746
:100510000895CF93DF93CDB7DEB7AE014A5F5F4F4B
:10052000FA0161917191AF018091C6029091C70269
:100530000E949D02DF91CF9108955F926F927F920A
:100540008F929F92AF92BF92CF92DF92EF92FF92E3
:100550000F931F93CF93DF9300D000D000D00F9262
:100560000F92CDB7DEB76C017B018A01FC011782C7
:100570001682838181FFDBC19AE0592EF601238127
:10058000F70123FD859123FF81917F01811509F4F6
:1005900059C1853239F423FD959123FF91917F0153
:1005A000953229F4B60190E00E94B004E7CF912C77
:1005B000612C712CF0E27F1640F59B32D9F058F493
:1005C0009032D1F09332F1F09E3299F576FC3AC137
:1005D000689476F806C09D3291F09033C1F4689427
:1005E00070F8F70123FD959123FF91917F019111FF
:1005F000E1CF26C0689471F8689472F8F2CF6894DD
:1006000073F8EFCF689474F8ECCF77FC19C080EDE5
:10061000890F8A30C8F676FE05C0959C800D11249E
:10062000982EDFCF659C800D1124682E689475F894
:10063000D8CF9C3619F4689477F8D3CF983689F2DE
:10064000892F8F7D8554833008F488C0933609F450
:10065000A4C0933709F4A7C0933509F4B3C0943606
:1006600019F0993609F0DDC0F80177FED3C0619129
:100670007191819191918F01272D2F76822E97FF75
:1006800009C090958095709561957F4F8F4F9F4FD2
:10069000689487F82AE030E0AE014F5F5F4F5A015F
:1006A0000E94E0048A19A82EBA2C782C86FE0CC071
:1006B000E89470F8A91440F484FE05C082FC03C0DD
:1006C000F82DFE7E7F2EB92C74FE0AC1FE01EA0DC4
:1006D000F11D8081803309F0FCC0272D297E722E08
:1006E00073FC0EC070FE0BC19A2CB61418F4960C55
:1006F0009B18B62C862D8B196B1408F480E0B80E6D
:10070000B61408F0FEC06B1874FEFDC0B60180E39D
:1007100090E00E94B00472FE09C088E590E071FC90
:1007200002C088E790E0B6010E94B004A91408F462
:10073000F7C0AA94B12C4FEFA41AB40ACE010196C7
:100740004C01A80EB91EF50182915F01B60190E03F
:100750000E94B0048A149B04B1F715C00C5F1F4FB0
:100760008FE3898388248394912CAE014F5F5F4F80
:100770005A01E89477F873FC03C08614910498F149
:1007800081149104B9F5611409F4F8CEB60180E240
:1007900090E00E94B0046A94F6CFF80180818983CA
:1007A0000E5F1F4FDFCFF801A190B1908F01692D2F
:1007B00070E076FC02C06FEF7FEFC5010E94A504D8
:1007C0004C01D7CFF801A190B1908F01692D70E055
:1007D00076FC02C06FEF7FEFC5010E949A044C01C6
:1007E000689477F8C8CFB60180E290E00E94B00428
:1007F0006A94C3CFF50177FC859177FE81915F0103
:10080000B60190E00E94B00461106A94F1E08F1A82
:100810009108B6CF61917191072E000C880B990B4E
:100820002ACF872CE89484F82AE030E09537C9F184
:10083000572D597F852E903739F1E8F4983539F1E5
:100840009F3669F1F601868197812B960FB6F89451
:10085000DEBF0FBECDBFDF91CF911F910F91FF90F3
:10086000EF90DF90CF90BF90AF909F908F907F9050
:100870006F905F900895983729F784FE02C06894BE
:1008800082F820E130E00DC0689484F8F6CF74FE61
:1008900003C0852F8660882E20E132E002C028E068
:1008A00030E0F80187FE10C06191719181919191C2
:1008B0008F01FE0131965F01AF010E94E0048A19A9
:1008C000A82EE89487F8F0CE6191719180E090E0D5
:1008D000EFCF72FC02C0B39403CFB394B39400CFB4
:1008E000872D8678811509F4FBCEF5CFB60180E21D
:1008F00090E00E94B00483948614C0F3FBCE8B2C4E
:10090000FBCF612C01CF872D8678811509F40ECF9E
:1009100080E271FC8BE277FC8DE2B60190E004CFBF
:10092000B60180E390E00E94B0049A94FFCE8FEF6E
:100930009FEF8BCFFC010590615070400110D8F7FC
:10094000809590958E0F9F1F0895FC016150704017
:1009500001900110D8F7809590958E0F9F1F0895F4
:100960000F931F93CF93DF93182F092FEB018B81E8
:1009700081FD09C01FEF0FEF812F902FDF91CF91E5
:100980001F910F91089582FF14C02E813F818C81A9
:100990009D81281739073CF4E881F981CF01019640
:1009A0009983888310838E819F8101969F838E8394
:1009B000E3CFE885F985812F1995892BA1F3DACF4B
:1009C000FA01AA27283051F1203181F1E8946F9380
:1009D0006E7F6E5F7F4F8F4F9F4FAF4FB1E03ED026
:1009E000B4E03CD0670F781F891F9A1FA11D680FC4
:1009F000791F8A1F911DA11D6A0F711D811D911DF7
:100A0000A11D20D009F468943F912AE0269F11246B
:100A10003019305D3193DEF6CF010895462F4770CF
:100A2000405D4193B3E00FD0C9F7F6CF462F4F702A
:100A3000405D4A3318F0495D31FD4052419302D088
:100A4000A9F7EACFB4E0A69597958795779567952E
:100A5000BA95C9F700976105710508959B01AC012E
:100A60000A2E06945795479537952795BA95C9F755
:100A7000620F731F841F951FA01D0895F894FFCF68
:100A800000000001000000000000A00000000000C5
:100A900000020000000099000000000031323334F1
:100AA000300025750A0054696D6572207374617297
:100AB0007465640023004B65793A2025630A00259C
:100AC000640A00414C41524D00256400447A7A7A10
:100AD000437A42417A7A7A7A7A7A7A7A7A7A7A7A1E
:100AE0007A7A7A7A7A7A7A7A7A7A7A7A7A7A7A7A66
:100AF0007A7A7A7A7A7A7A7A7A7A7A7A7A7A7A7A56
:100B00007A7A7A7A7A7A7A7A7A7A7A7A237A7A7A9C
:100B1000397A36337A7A7A7A7A7A7A7A7A7A7A7A01
:100B20007A7A7A7A7A7A7A7A7A7A7A7A307A7A7A6F
:100B3000387A35327A7A7A7A7A7A7A7A2A7A7A7A34
:040B4000377A34319B
:00000001FF
